{
  "_format": "hh-sol-artifact-1",
  "contractName": "Token",
  "sourceName": "contracts/Token.sol",
  "abi": [
    {
      "inputs": [
        {
          "internalType": "address",
          "name": "_feeAddress",
          "type": "address"
        },
        {
          "internalType": "address",
          "name": "_donationAddress",
          "type": "address"
        }
      ],
      "stateMutability": "nonpayable",
      "type": "constructor"
    },
    {
      "anonymous": false,
      "inputs": [
        {
          "indexed": true,
          "internalType": "address",
          "name": "_player",
          "type": "address"
        },
        {
          "indexed": false,
          "internalType": "uint256",
          "name": "_betAmount",
          "type": "uint256"
        },
        {
          "indexed": false,
          "internalType": "uint256",
          "name": "_score",
          "type": "uint256"
        },
        {
          "indexed": false,
          "internalType": "string",
          "name": "_message",
          "type": "string"
        }
      ],
      "name": "BetPlaced",
      "type": "event"
    },
    {
      "anonymous": false,
      "inputs": [
        {
          "indexed": true,
          "internalType": "address",
          "name": "_winner",
          "type": "address"
        },
        {
          "indexed": false,
          "internalType": "uint256",
          "name": "_amountWon",
          "type": "uint256"
        }
      ],
      "name": "BetResult",
      "type": "event"
    },
    {
      "anonymous": false,
      "inputs": [
        {
          "indexed": true,
          "internalType": "address",
          "name": "_from",
          "type": "address"
        },
        {
          "indexed": true,
          "internalType": "address",
          "name": "_to",
          "type": "address"
        },
        {
          "indexed": false,
          "internalType": "uint256",
          "name": "_value",
          "type": "uint256"
        }
      ],
      "name": "Transfer",
      "type": "event"
    },
    {
      "inputs": [
        {
          "internalType": "address",
          "name": "account",
          "type": "address"
        }
      ],
      "name": "balanceOf",
      "outputs": [
        {
          "internalType": "uint256",
          "name": "",
          "type": "uint256"
        }
      ],
      "stateMutability": "view",
      "type": "function"
    },
    {
      "inputs": [],
      "name": "donationAddress",
      "outputs": [
        {
          "internalType": "address",
          "name": "",
          "type": "address"
        }
      ],
      "stateMutability": "view",
      "type": "function"
    },
    {
      "inputs": [],
      "name": "donationPercentage",
      "outputs": [
        {
          "internalType": "uint256",
          "name": "",
          "type": "uint256"
        }
      ],
      "stateMutability": "view",
      "type": "function"
    },
    {
      "inputs": [],
      "name": "feeAddress",
      "outputs": [
        {
          "internalType": "address",
          "name": "",
          "type": "address"
        }
      ],
      "stateMutability": "view",
      "type": "function"
    },
    {
      "inputs": [],
      "name": "feePercentage",
      "outputs": [
        {
          "internalType": "uint256",
          "name": "",
          "type": "uint256"
        }
      ],
      "stateMutability": "view",
      "type": "function"
    },
    {
      "inputs": [],
      "name": "minimumBet",
      "outputs": [
        {
          "internalType": "uint256",
          "name": "",
          "type": "uint256"
        }
      ],
      "stateMutability": "view",
      "type": "function"
    },
    {
      "inputs": [],
      "name": "name",
      "outputs": [
        {
          "internalType": "string",
          "name": "",
          "type": "string"
        }
      ],
      "stateMutability": "view",
      "type": "function"
    },
    {
      "inputs": [],
      "name": "owner",
      "outputs": [
        {
          "internalType": "address",
          "name": "",
          "type": "address"
        }
      ],
      "stateMutability": "view",
      "type": "function"
    },
    {
      "inputs": [
        {
          "internalType": "uint256",
          "name": "betAmount",
          "type": "uint256"
        },
        {
          "internalType": "uint256",
          "name": "playerScore",
          "type": "uint256"
        },
        {
          "internalType": "string",
          "name": "message",
          "type": "string"
        }
      ],
      "name": "placeBet",
      "outputs": [],
      "stateMutability": "nonpayable",
      "type": "function"
    },
    {
      "inputs": [],
      "name": "pot",
      "outputs": [
        {
          "internalType": "uint256",
          "name": "",
          "type": "uint256"
        }
      ],
      "stateMutability": "view",
      "type": "function"
    },
    {
      "inputs": [
        {
          "internalType": "address",
          "name": "player1",
          "type": "address"
        },
        {
          "internalType": "uint256",
          "name": "score1",
          "type": "uint256"
        },
        {
          "internalType": "address",
          "name": "player2",
          "type": "address"
        },
        {
          "internalType": "uint256",
          "name": "score2",
          "type": "uint256"
        }
      ],
      "name": "resolveBet",
      "outputs": [],
      "stateMutability": "nonpayable",
      "type": "function"
    },
    {
      "inputs": [],
      "name": "symbol",
      "outputs": [
        {
          "internalType": "string",
          "name": "",
          "type": "string"
        }
      ],
      "stateMutability": "view",
      "type": "function"
    },
    {
      "inputs": [],
      "name": "totalSupply",
      "outputs": [
        {
          "internalType": "uint256",
          "name": "",
          "type": "uint256"
        }
      ],
      "stateMutability": "view",
      "type": "function"
    },
    {
      "inputs": [
        {
          "internalType": "address",
          "name": "to",
          "type": "address"
        },
        {
          "internalType": "uint256",
          "name": "amount",
          "type": "uint256"
        }
      ],
      "name": "transfer",
      "outputs": [],
      "stateMutability": "nonpayable",
      "type": "function"
    }
  ],
  "bytecode": "0x60806040526040518060400160405280600a81526020017f47616d657258476f6c6400000000000000000000000000000000000000000000815250600090816200004a919062000466565b506040518060400160405280600381526020017f47584700000000000000000000000000000000000000000000000000000000008152506001908162000091919062000466565b50620f4240600255600a60065560026007556005600855348015620000b557600080fd5b5060405162001b9b38038062001b9b8339818101604052810190620000db9190620005b7565b600254600460003373ffffffffffffffffffffffffffffffffffffffff1673ffffffffffffffffffffffffffffffffffffffff1681526020019081526020016000208190555033600360006101000a81548173ffffffffffffffffffffffffffffffffffffffff021916908373ffffffffffffffffffffffffffffffffffffffff16021790555081600960006101000a81548173ffffffffffffffffffffffffffffffffffffffff021916908373ffffffffffffffffffffffffffffffffffffffff16021790555080600a60006101000a81548173ffffffffffffffffffffffffffffffffffffffff021916908373ffffffffffffffffffffffffffffffffffffffff1602179055505050620005fe565b600081519050919050565b7f4e487b7100000000000000000000000000000000000000000000000000000000600052604160045260246000fd5b7f4e487b7100000000000000000000000000000000000000000000000000000000600052602260045260246000fd5b600060028204905060018216806200026e57607f821691505b60208210810362000284576200028362000226565b5b50919050565b60008190508160005260206000209050919050565b60006020601f8301049050919050565b600082821b905092915050565b600060088302620002ee7fffffffffffffffffffffffffffffffffffffffffffffffffffffffffffffffff82620002af565b620002fa8683620002af565b95508019841693508086168417925050509392505050565b6000819050919050565b6000819050919050565b600062000347620003416200033b8462000312565b6200031c565b62000312565b9050919050565b6000819050919050565b620003638362000326565b6200037b62000372826200034e565b848454620002bc565b825550505050565b600090565b6200039262000383565b6200039f81848462000358565b505050565b5b81811015620003c757620003bb60008262000388565b600181019050620003a5565b5050565b601f8211156200041657620003e0816200028a565b620003eb846200029f565b81016020851015620003fb578190505b620004136200040a856200029f565b830182620003a4565b50505b505050565b600082821c905092915050565b60006200043b600019846008026200041b565b1980831691505092915050565b600062000456838362000428565b9150826002028217905092915050565b6200047182620001ec565b67ffffffffffffffff8111156200048d576200048c620001f7565b5b62000499825462000255565b620004a6828285620003cb565b600060209050601f831160018114620004de5760008415620004c9578287015190505b620004d5858262000448565b86555062000545565b601f198416620004ee866200028a565b60005b828110156200051857848901518255600182019150602085019450602081019050620004f1565b8683101562000538578489015162000534601f89168262000428565b8355505b6001600288020188555050505b505050505050565b600080fd5b600073ffffffffffffffffffffffffffffffffffffffff82169050919050565b60006200057f8262000552565b9050919050565b620005918162000572565b81146200059d57600080fd5b50565b600081519050620005b18162000586565b92915050565b60008060408385031215620005d157620005d06200054d565b5b6000620005e185828601620005a0565b9250506020620005f485828601620005a0565b9150509250929050565b61158d806200060e6000396000f3fe608060405234801561001057600080fd5b50600436106100ea5760003560e01c8063a001ecdd1161008c578063c38a8afd11610066578063c38a8afd1461022b578063d973203614610249578063ec034bed14610265578063ed732ddb14610283576100ea565b8063a001ecdd146101d3578063a9059cbb146101f1578063c16cc8101461020d576100ea565b80634ba2363a116100c85780634ba2363a1461014957806370a08231146101675780638da5cb5b1461019757806395d89b41146101b5576100ea565b806306fdde03146100ef57806318160ddd1461010d578063412753581461012b575b600080fd5b6100f761029f565b6040516101049190610d82565b60405180910390f35b61011561032d565b6040516101229190610dbd565b60405180910390f35b610133610333565b6040516101409190610e19565b60405180910390f35b610151610359565b60405161015e9190610dbd565b60405180910390f35b610181600480360381019061017c9190610e74565b61035f565b60405161018e9190610dbd565b60405180910390f35b61019f6103a8565b6040516101ac9190610e19565b60405180910390f35b6101bd6103ce565b6040516101ca9190610d82565b60405180910390f35b6101db61045c565b6040516101e89190610dbd565b60405180910390f35b61020b60048036038101906102069190610ecd565b610462565b005b6102156105f9565b6040516102229190610dbd565b60405180910390f35b6102336105ff565b6040516102409190610dbd565b60405180910390f35b610263600480360381019061025e9190610f0d565b610605565b005b61026d6109f5565b60405161027a9190610e19565b60405180910390f35b61029d600480360381019061029891906110a9565b610a1b565b005b600080546102ac90611147565b80601f01602080910402602001604051908101604052809291908181526020018280546102d890611147565b80156103255780601f106102fa57610100808354040283529160200191610325565b820191906000526020600020905b81548152906001019060200180831161030857829003601f168201915b505050505081565b60025481565b600960009054906101000a900473ffffffffffffffffffffffffffffffffffffffff1681565b60055481565b6000600460008373ffffffffffffffffffffffffffffffffffffffff1673ffffffffffffffffffffffffffffffffffffffff168152602001908152602001600020549050919050565b600360009054906101000a900473ffffffffffffffffffffffffffffffffffffffff1681565b600180546103db90611147565b80601f016020809104026020016040519081016040528092919081815260200182805461040790611147565b80156104545780601f1061042957610100808354040283529160200191610454565b820191906000526020600020905b81548152906001019060200180831161043757829003601f168201915b505050505081565b60075481565b80600460003373ffffffffffffffffffffffffffffffffffffffff1673ffffffffffffffffffffffffffffffffffffffff1681526020019081526020016000205410156104e4576040517f08c379a00000000000000000000000000000000000000000000000000000000081526004016104db906111c4565b60405180910390fd5b80600460003373ffffffffffffffffffffffffffffffffffffffff1673ffffffffffffffffffffffffffffffffffffffff16815260200190815260200160002060008282546105339190611213565b9250508190555080600460008473ffffffffffffffffffffffffffffffffffffffff1673ffffffffffffffffffffffffffffffffffffffff16815260200190815260200160002060008282546105899190611247565b925050819055508173ffffffffffffffffffffffffffffffffffffffff163373ffffffffffffffffffffffffffffffffffffffff167fddf252ad1be2c89b69c2b068fc378daa952ba7f163c4a11628f55a4df523b3ef836040516105ed9190610dbd565b60405180910390a35050565b60085481565b60065481565b600360009054906101000a900473ffffffffffffffffffffffffffffffffffffffff1673ffffffffffffffffffffffffffffffffffffffff163373ffffffffffffffffffffffffffffffffffffffff1614610695576040517f08c379a000000000000000000000000000000000000000000000000000000000815260040161068c906112c7565b60405180910390fd5b6000600460008673ffffffffffffffffffffffffffffffffffffffff1673ffffffffffffffffffffffffffffffffffffffff1681526020019081526020016000205411801561072357506000600460008473ffffffffffffffffffffffffffffffffffffffff1673ffffffffffffffffffffffffffffffffffffffff16815260200190815260200160002054115b610762576040517f08c379a000000000000000000000000000000000000000000000000000000000815260040161075990611333565b60405180910390fd5b8083111561081757600554600460008673ffffffffffffffffffffffffffffffffffffffff1673ffffffffffffffffffffffffffffffffffffffff16815260200190815260200160002060008282546107bb9190611247565b925050819055508373ffffffffffffffffffffffffffffffffffffffff167fecfb59b64b8792fa606e135d9ceaf0898b4310aaf8d026b59233dcd741f09ea260055460405161080a9190610dbd565b60405180910390a26109e7565b828111156108cc57600554600460008473ffffffffffffffffffffffffffffffffffffffff1673ffffffffffffffffffffffffffffffffffffffff16815260200190815260200160002060008282546108709190611247565b925050819055508173ffffffffffffffffffffffffffffffffffffffff167fecfb59b64b8792fa606e135d9ceaf0898b4310aaf8d026b59233dcd741f09ea26005546040516108bf9190610dbd565b60405180910390a26109e6565b60026005546108db9190611382565b600460008673ffffffffffffffffffffffffffffffffffffffff1673ffffffffffffffffffffffffffffffffffffffff16815260200190815260200160002060008282546109299190611247565b92505081905550600260055461093f9190611382565b600460008473ffffffffffffffffffffffffffffffffffffffff1673ffffffffffffffffffffffffffffffffffffffff168152602001908152602001600020600082825461098d9190611247565b92505081905550600073ffffffffffffffffffffffffffffffffffffffff167fecfb59b64b8792fa606e135d9ceaf0898b4310aaf8d026b59233dcd741f09ea26005546040516109dd9190610dbd565b60405180910390a25b5b600060058190555050505050565b600a60009054906101000a900473ffffffffffffffffffffffffffffffffffffffff1681565b600654831015610a60576040517f08c379a0000000000000000000000000000000000000000000000000000000008152600401610a5790611425565b60405180910390fd5b82600460003373ffffffffffffffffffffffffffffffffffffffff1673ffffffffffffffffffffffffffffffffffffffff168152602001908152602001600020541015610ae2576040517f08c379a0000000000000000000000000000000000000000000000000000000008152600401610ad9906114b7565b60405180910390fd5b6000606460075485610af491906114d7565b610afe9190611382565b90506000606460085486610b1291906114d7565b610b1c9190611382565b90506000818387610b2d9190611213565b610b379190611213565b905085600460003373ffffffffffffffffffffffffffffffffffffffff1673ffffffffffffffffffffffffffffffffffffffff1681526020019081526020016000206000828254610b889190611213565b925050819055508060056000828254610ba19190611247565b925050819055508260046000600960009054906101000a900473ffffffffffffffffffffffffffffffffffffffff1673ffffffffffffffffffffffffffffffffffffffff1673ffffffffffffffffffffffffffffffffffffffff1681526020019081526020016000206000828254610c199190611247565b925050819055508160046000600a60009054906101000a900473ffffffffffffffffffffffffffffffffffffffff1673ffffffffffffffffffffffffffffffffffffffff1673ffffffffffffffffffffffffffffffffffffffff1681526020019081526020016000206000828254610c919190611247565b925050819055503373ffffffffffffffffffffffffffffffffffffffff167f4d20e64082ede6f8ef4a1d21be42a765e21266033fdf138a7e23ea9854300b55828787604051610ce293929190611519565b60405180910390a2505050505050565b600081519050919050565b600082825260208201905092915050565b60005b83811015610d2c578082015181840152602081019050610d11565b60008484015250505050565b6000601f19601f8301169050919050565b6000610d5482610cf2565b610d5e8185610cfd565b9350610d6e818560208601610d0e565b610d7781610d38565b840191505092915050565b60006020820190508181036000830152610d9c8184610d49565b905092915050565b6000819050919050565b610db781610da4565b82525050565b6000602082019050610dd26000830184610dae565b92915050565b600073ffffffffffffffffffffffffffffffffffffffff82169050919050565b6000610e0382610dd8565b9050919050565b610e1381610df8565b82525050565b6000602082019050610e2e6000830184610e0a565b92915050565b6000604051905090565b600080fd5b600080fd5b610e5181610df8565b8114610e5c57600080fd5b50565b600081359050610e6e81610e48565b92915050565b600060208284031215610e8a57610e89610e3e565b5b6000610e9884828501610e5f565b91505092915050565b610eaa81610da4565b8114610eb557600080fd5b50565b600081359050610ec781610ea1565b92915050565b60008060408385031215610ee457610ee3610e3e565b5b6000610ef285828601610e5f565b9250506020610f0385828601610eb8565b9150509250929050565b60008060008060808587031215610f2757610f26610e3e565b5b6000610f3587828801610e5f565b9450506020610f4687828801610eb8565b9350506040610f5787828801610e5f565b9250506060610f6887828801610eb8565b91505092959194509250565b600080fd5b600080fd5b7f4e487b7100000000000000000000000000000000000000000000000000000000600052604160045260246000fd5b610fb682610d38565b810181811067ffffffffffffffff82111715610fd557610fd4610f7e565b5b80604052505050565b6000610fe8610e34565b9050610ff48282610fad565b919050565b600067ffffffffffffffff82111561101457611013610f7e565b5b61101d82610d38565b9050602081019050919050565b82818337600083830152505050565b600061104c61104784610ff9565b610fde565b90508281526020810184848401111561106857611067610f79565b5b61107384828561102a565b509392505050565b600082601f8301126110905761108f610f74565b5b81356110a0848260208601611039565b91505092915050565b6000806000606084860312156110c2576110c1610e3e565b5b60006110d086828701610eb8565b93505060206110e186828701610eb8565b925050604084013567ffffffffffffffff81111561110257611101610e43565b5b61110e8682870161107b565b9150509250925092565b7f4e487b7100000000000000000000000000000000000000000000000000000000600052602260045260246000fd5b6000600282049050600182168061115f57607f821691505b60208210810361117257611171611118565b5b50919050565b7f4e6f7420656e6f75676820746f6b656e73000000000000000000000000000000600082015250565b60006111ae601183610cfd565b91506111b982611178565b602082019050919050565b600060208201905081810360008301526111dd816111a1565b9050919050565b7f4e487b7100000000000000000000000000000000000000000000000000000000600052601160045260246000fd5b600061121e82610da4565b915061122983610da4565b9250828203905081811115611241576112406111e4565b5b92915050565b600061125282610da4565b915061125d83610da4565b9250828201905080821115611275576112746111e4565b5b92915050565b7f4f6e6c7920746865206f776e65722063616e207265736f6c7665206265747300600082015250565b60006112b1601f83610cfd565b91506112bc8261127b565b602082019050919050565b600060208201905081810360008301526112e0816112a4565b9050919050565b7f496e76616c696420706c61796572730000000000000000000000000000000000600082015250565b600061131d600f83610cfd565b9150611328826112e7565b602082019050919050565b6000602082019050818103600083015261134c81611310565b9050919050565b7f4e487b7100000000000000000000000000000000000000000000000000000000600052601260045260246000fd5b600061138d82610da4565b915061139883610da4565b9250826113a8576113a7611353565b5b828204905092915050565b7f42657420616d6f756e742069732062656c6f7720746865206d696e696d756d2060008201527f6265740000000000000000000000000000000000000000000000000000000000602082015250565b600061140f602383610cfd565b915061141a826113b3565b604082019050919050565b6000602082019050818103600083015261143e81611402565b9050919050565b7f4e6f7420656e6f75676820746f6b656e7320746f20706c61636520746865206260008201527f6574000000000000000000000000000000000000000000000000000000000000602082015250565b60006114a1602283610cfd565b91506114ac82611445565b604082019050919050565b600060208201905081810360008301526114d081611494565b9050919050565b60006114e282610da4565b91506114ed83610da4565b92508282026114fb81610da4565b91508282048414831517611512576115116111e4565b5b5092915050565b600060608201905061152e6000830186610dae565b61153b6020830185610dae565b818103604083015261154d8184610d49565b905094935050505056fea264697066735822122073e604e6ad4d924fd70d4d3479f2199bc96df1b55991e4fd1296a89c58710b7f64736f6c63430008130033",
  "linkReferences": {},
  "deployedLinkReferences": {}
}